{
  "_format": "hh-sol-artifact-1",
  "contractName": "FreelanceMarketplace",
  "sourceName": "contracts/FreelanceMarketplace.sol",
  "abi": [
    {
      "inputs": [
        {
          "internalType": "address",
          "name": "tokenAddress",
          "type": "address"
        }
      ],
      "stateMutability": "nonpayable",
      "type": "constructor"
    },
    {
      "inputs": [
        {
          "internalType": "address",
          "name": "sender",
          "type": "address"
        },
        {
          "internalType": "uint256",
          "name": "tokenId",
          "type": "uint256"
        },
        {
          "internalType": "address",
          "name": "owner",
          "type": "address"
        }
      ],
      "name": "ERC721IncorrectOwner",
      "type": "error"
    },
    {
      "inputs": [
        {
          "internalType": "address",
          "name": "operator",
          "type": "address"
        },
        {
          "internalType": "uint256",
          "name": "tokenId",
          "type": "uint256"
        }
      ],
      "name": "ERC721InsufficientApproval",
      "type": "error"
    },
    {
      "inputs": [
        {
          "internalType": "address",
          "name": "approver",
          "type": "address"
        }
      ],
      "name": "ERC721InvalidApprover",
      "type": "error"
    },
    {
      "inputs": [
        {
          "internalType": "address",
          "name": "operator",
          "type": "address"
        }
      ],
      "name": "ERC721InvalidOperator",
      "type": "error"
    },
    {
      "inputs": [
        {
          "internalType": "address",
          "name": "owner",
          "type": "address"
        }
      ],
      "name": "ERC721InvalidOwner",
      "type": "error"
    },
    {
      "inputs": [
        {
          "internalType": "address",
          "name": "receiver",
          "type": "address"
        }
      ],
      "name": "ERC721InvalidReceiver",
      "type": "error"
    },
    {
      "inputs": [
        {
          "internalType": "address",
          "name": "sender",
          "type": "address"
        }
      ],
      "name": "ERC721InvalidSender",
      "type": "error"
    },
    {
      "inputs": [
        {
          "internalType": "uint256",
          "name": "tokenId",
          "type": "uint256"
        }
      ],
      "name": "ERC721NonexistentToken",
      "type": "error"
    },
    {
      "anonymous": false,
      "inputs": [
        {
          "indexed": true,
          "internalType": "address",
          "name": "owner",
          "type": "address"
        },
        {
          "indexed": true,
          "internalType": "address",
          "name": "approved",
          "type": "address"
        },
        {
          "indexed": true,
          "internalType": "uint256",
          "name": "tokenId",
          "type": "uint256"
        }
      ],
      "name": "Approval",
      "type": "event"
    },
    {
      "anonymous": false,
      "inputs": [
        {
          "indexed": true,
          "internalType": "address",
          "name": "owner",
          "type": "address"
        },
        {
          "indexed": true,
          "internalType": "address",
          "name": "operator",
          "type": "address"
        },
        {
          "indexed": false,
          "internalType": "bool",
          "name": "approved",
          "type": "bool"
        }
      ],
      "name": "ApprovalForAll",
      "type": "event"
    },
    {
      "anonymous": false,
      "inputs": [
        {
          "indexed": true,
          "internalType": "uint256",
          "name": "id",
          "type": "uint256"
        },
        {
          "indexed": true,
          "internalType": "address",
          "name": "client",
          "type": "address"
        },
        {
          "indexed": true,
          "internalType": "address",
          "name": "freelancer",
          "type": "address"
        }
      ],
      "name": "ModuleAdded",
      "type": "event"
    },
    {
      "anonymous": false,
      "inputs": [
        {
          "indexed": true,
          "internalType": "uint256",
          "name": "id",
          "type": "uint256"
        },
        {
          "indexed": false,
          "internalType": "uint256",
          "name": "paymentAmount",
          "type": "uint256"
        }
      ],
      "name": "ModuleApproved",
      "type": "event"
    },
    {
      "anonymous": false,
      "inputs": [
        {
          "indexed": true,
          "internalType": "uint256",
          "name": "id",
          "type": "uint256"
        },
        {
          "indexed": false,
          "internalType": "string",
          "name": "ipfsHash",
          "type": "string"
        }
      ],
      "name": "ModuleSubmitted",
      "type": "event"
    },
    {
      "anonymous": false,
      "inputs": [
        {
          "indexed": true,
          "internalType": "address",
          "name": "from",
          "type": "address"
        },
        {
          "indexed": true,
          "internalType": "address",
          "name": "to",
          "type": "address"
        },
        {
          "indexed": true,
          "internalType": "uint256",
          "name": "tokenId",
          "type": "uint256"
        }
      ],
      "name": "Transfer",
      "type": "event"
    },
    {
      "inputs": [
        {
          "internalType": "address",
          "name": "freelancer",
          "type": "address"
        }
      ],
      "name": "addModule",
      "outputs": [
        {
          "internalType": "uint256",
          "name": "",
          "type": "uint256"
        }
      ],
      "stateMutability": "nonpayable",
      "type": "function"
    },
    {
      "inputs": [
        {
          "internalType": "address",
          "name": "to",
          "type": "address"
        },
        {
          "internalType": "uint256",
          "name": "tokenId",
          "type": "uint256"
        }
      ],
      "name": "approve",
      "outputs": [],
      "stateMutability": "nonpayable",
      "type": "function"
    },
    {
      "inputs": [
        {
          "internalType": "uint256",
          "name": "moduleId",
          "type": "uint256"
        },
        {
          "internalType": "uint256",
          "name": "paymentAmount",
          "type": "uint256"
        }
      ],
      "name": "approveModule",
      "outputs": [],
      "stateMutability": "nonpayable",
      "type": "function"
    },
    {
      "inputs": [
        {
          "internalType": "address",
          "name": "owner",
          "type": "address"
        }
      ],
      "name": "balanceOf",
      "outputs": [
        {
          "internalType": "uint256",
          "name": "",
          "type": "uint256"
        }
      ],
      "stateMutability": "view",
      "type": "function"
    },
    {
      "inputs": [
        {
          "internalType": "uint256",
          "name": "tokenId",
          "type": "uint256"
        }
      ],
      "name": "getApproved",
      "outputs": [
        {
          "internalType": "address",
          "name": "",
          "type": "address"
        }
      ],
      "stateMutability": "view",
      "type": "function"
    },
    {
      "inputs": [
        {
          "internalType": "address",
          "name": "owner",
          "type": "address"
        },
        {
          "internalType": "address",
          "name": "operator",
          "type": "address"
        }
      ],
      "name": "isApprovedForAll",
      "outputs": [
        {
          "internalType": "bool",
          "name": "",
          "type": "bool"
        }
      ],
      "stateMutability": "view",
      "type": "function"
    },
    {
      "inputs": [],
      "name": "moduleCount",
      "outputs": [
        {
          "internalType": "uint256",
          "name": "",
          "type": "uint256"
        }
      ],
      "stateMutability": "view",
      "type": "function"
    },
    {
      "inputs": [
        {
          "internalType": "uint256",
          "name": "",
          "type": "uint256"
        }
      ],
      "name": "modules",
      "outputs": [
        {
          "internalType": "uint256",
          "name": "id",
          "type": "uint256"
        },
        {
          "internalType": "address",
          "name": "client",
          "type": "address"
        },
        {
          "internalType": "address",
          "name": "freelancer",
          "type": "address"
        },
        {
          "internalType": "string",
          "name": "ipfsHash",
          "type": "string"
        },
        {
          "internalType": "bool",
          "name": "submitted",
          "type": "bool"
        },
        {
          "internalType": "bool",
          "name": "paid",
          "type": "bool"
        }
      ],
      "stateMutability": "view",
      "type": "function"
    },
    {
      "inputs": [],
      "name": "name",
      "outputs": [
        {
          "internalType": "string",
          "name": "",
          "type": "string"
        }
      ],
      "stateMutability": "view",
      "type": "function"
    },
    {
      "inputs": [
        {
          "internalType": "uint256",
          "name": "tokenId",
          "type": "uint256"
        }
      ],
      "name": "ownerOf",
      "outputs": [
        {
          "internalType": "address",
          "name": "",
          "type": "address"
        }
      ],
      "stateMutability": "view",
      "type": "function"
    },
    {
      "inputs": [
        {
          "internalType": "address",
          "name": "from",
          "type": "address"
        },
        {
          "internalType": "address",
          "name": "to",
          "type": "address"
        },
        {
          "internalType": "uint256",
          "name": "tokenId",
          "type": "uint256"
        }
      ],
      "name": "safeTransferFrom",
      "outputs": [],
      "stateMutability": "nonpayable",
      "type": "function"
    },
    {
      "inputs": [
        {
          "internalType": "address",
          "name": "from",
          "type": "address"
        },
        {
          "internalType": "address",
          "name": "to",
          "type": "address"
        },
        {
          "internalType": "uint256",
          "name": "tokenId",
          "type": "uint256"
        },
        {
          "internalType": "bytes",
          "name": "data",
          "type": "bytes"
        }
      ],
      "name": "safeTransferFrom",
      "outputs": [],
      "stateMutability": "nonpayable",
      "type": "function"
    },
    {
      "inputs": [
        {
          "internalType": "address",
          "name": "operator",
          "type": "address"
        },
        {
          "internalType": "bool",
          "name": "approved",
          "type": "bool"
        }
      ],
      "name": "setApprovalForAll",
      "outputs": [],
      "stateMutability": "nonpayable",
      "type": "function"
    },
    {
      "inputs": [
        {
          "internalType": "uint256",
          "name": "moduleId",
          "type": "uint256"
        },
        {
          "internalType": "string",
          "name": "ipfsHash",
          "type": "string"
        }
      ],
      "name": "submitModule",
      "outputs": [],
      "stateMutability": "nonpayable",
      "type": "function"
    },
    {
      "inputs": [
        {
          "internalType": "bytes4",
          "name": "interfaceId",
          "type": "bytes4"
        }
      ],
      "name": "supportsInterface",
      "outputs": [
        {
          "internalType": "bool",
          "name": "",
          "type": "bool"
        }
      ],
      "stateMutability": "view",
      "type": "function"
    },
    {
      "inputs": [],
      "name": "symbol",
      "outputs": [
        {
          "internalType": "string",
          "name": "",
          "type": "string"
        }
      ],
      "stateMutability": "view",
      "type": "function"
    },
    {
      "inputs": [],
      "name": "token",
      "outputs": [
        {
          "internalType": "contract IERC20",
          "name": "",
          "type": "address"
        }
      ],
      "stateMutability": "view",
      "type": "function"
    },
    {
      "inputs": [
        {
          "internalType": "uint256",
          "name": "tokenId",
          "type": "uint256"
        }
      ],
      "name": "tokenURI",
      "outputs": [
        {
          "internalType": "string",
          "name": "",
          "type": "string"
        }
      ],
      "stateMutability": "view",
      "type": "function"
    },
    {
      "inputs": [
        {
          "internalType": "address",
          "name": "from",
          "type": "address"
        },
        {
          "internalType": "address",
          "name": "to",
          "type": "address"
        },
        {
          "internalType": "uint256",
          "name": "tokenId",
          "type": "uint256"
        }
      ],
      "name": "transferFrom",
      "outputs": [],
      "stateMutability": "nonpayable",
      "type": "function"
    }
  ],
  "bytecode": "0x608060405234801562000010575f80fd5b506040516200347d3803806200347d833981810160405281019062000036919062000173565b6040518060400160405280600981526020017f4d6f64756c654e465400000000000000000000000000000000000000000000008152506040518060400160405280600481526020017f4d4e465400000000000000000000000000000000000000000000000000000000815250815f9081620000b2919062000407565b508060019081620000c4919062000407565b5050508060065f6101000a81548173ffffffffffffffffffffffffffffffffffffffff021916908373ffffffffffffffffffffffffffffffffffffffff16021790555050620004eb565b5f80fd5b5f73ffffffffffffffffffffffffffffffffffffffff82169050919050565b5f6200013d8262000112565b9050919050565b6200014f8162000131565b81146200015a575f80fd5b50565b5f815190506200016d8162000144565b92915050565b5f602082840312156200018b576200018a6200010e565b5b5f6200019a848285016200015d565b91505092915050565b5f81519050919050565b7f4e487b71000000000000000000000000000000000000000000000000000000005f52604160045260245ffd5b7f4e487b71000000000000000000000000000000000000000000000000000000005f52602260045260245ffd5b5f60028204905060018216806200021f57607f821691505b602082108103620002355762000234620001da565b5b50919050565b5f819050815f5260205f209050919050565b5f6020601f8301049050919050565b5f82821b905092915050565b5f60088302620002997fffffffffffffffffffffffffffffffffffffffffffffffffffffffffffffffff826200025c565b620002a586836200025c565b95508019841693508086168417925050509392505050565b5f819050919050565b5f819050919050565b5f620002ef620002e9620002e384620002bd565b620002c6565b620002bd565b9050919050565b5f819050919050565b6200030a83620002cf565b620003226200031982620002f6565b84845462000268565b825550505050565b5f90565b620003386200032a565b62000345818484620002ff565b505050565b5b818110156200036c57620003605f826200032e565b6001810190506200034b565b5050565b601f821115620003bb5762000385816200023b565b62000390846200024d565b81016020851015620003a0578190505b620003b8620003af856200024d565b8301826200034a565b50505b505050565b5f82821c905092915050565b5f620003dd5f1984600802620003c0565b1980831691505092915050565b5f620003f78383620003cc565b9150826002028217905092915050565b6200041282620001a3565b67ffffffffffffffff8111156200042e576200042d620001ad565b5b6200043a825462000207565b6200044782828562000370565b5f60209050601f8311600181146200047d575f841562000468578287015190505b620004748582620003ea565b865550620004e3565b601f1984166200048d866200023b565b5f5b82811015620004b6578489015182556001820191506020850194506020810190506200048f565b86831015620004d65784890151620004d2601f891682620003cc565b8355505b6001600288020188555050505b505050505050565b612f8480620004f95f395ff3fe608060405234801561000f575f80fd5b506004361061011f575f3560e01c80636352211e116100ab578063a22cb4651161006f578063a22cb4651461032e578063b88d4fde1461034a578063c87b56dd14610366578063e985e9c514610396578063fc0c546a146103c65761011f565b80636352211e1461025f57806370a082311461028f5780637bdf1af7146102bf57806381b2248a146102db57806395d89b41146103105761011f565b806309aaebf2116100f257806309aaebf2146101bd5780631ed86f19146101d957806323b872dd14610209578063334f7ac51461022557806342842e0e146102435761011f565b806301ffc9a71461012357806306fdde0314610153578063081812fc14610171578063095ea7b3146101a1575b5f80fd5b61013d60048036038101906101389190611f54565b6103e4565b60405161014a9190611f99565b60405180910390f35b61015b6104c5565b604051610168919061203c565b60405180910390f35b61018b6004803603810190610186919061208f565b610554565b60405161019891906120f9565b60405180910390f35b6101bb60048036038101906101b6919061213c565b61056f565b005b6101d760048036038101906101d2919061217a565b610585565b005b6101f360048036038101906101ee91906121b8565b610921565b60405161020091906121f2565b60405180910390f35b610223600480360381019061021e919061220b565b610b18565b005b61022d610c17565b60405161023a91906121f2565b60405180910390f35b61025d6004803603810190610258919061220b565b610c1d565b005b6102796004803603810190610274919061208f565b610c3c565b60405161028691906120f9565b60405180910390f35b6102a960048036038101906102a491906121b8565b610c4d565b6040516102b691906121f2565b60405180910390f35b6102d960048036038101906102d49190612387565b610d03565b005b6102f560048036038101906102f0919061208f565b610ef5565b604051610307969594939291906123e1565b60405180910390f35b61031861100a565b604051610325919061203c565b60405180910390f35b61034860048036038101906103439190612471565b61109a565b005b610364600480360381019061035f919061254d565b6110b0565b005b610380600480360381019061037b919061208f565b6110d5565b60405161038d919061203c565b60405180910390f35b6103b060048036038101906103ab91906125cd565b61113b565b6040516103bd9190611f99565b60405180910390f35b6103ce6111c9565b6040516103db9190612666565b60405180910390f35b5f7f80ac58cd000000000000000000000000000000000000000000000000000000007bffffffffffffffffffffffffffffffffffffffffffffffffffffffff1916827bffffffffffffffffffffffffffffffffffffffffffffffffffffffff191614806104ae57507f5b5e139f000000000000000000000000000000000000000000000000000000007bffffffffffffffffffffffffffffffffffffffffffffffffffffffff1916827bffffffffffffffffffffffffffffffffffffffffffffffffffffffff1916145b806104be57506104bd826111ee565b5b9050919050565b60605f80546104d3906126ac565b80601f01602080910402602001604051908101604052809291908181526020018280546104ff906126ac565b801561054a5780601f106105215761010080835404028352916020019161054a565b820191905f5260205f20905b81548152906001019060200180831161052d57829003601f168201915b5050505050905090565b5f61055e82611257565b50610568826112dd565b9050919050565b610581828261057c611316565b61131d565b5050565b5f60085f8481526020019081526020015f2090505f73ffffffffffffffffffffffffffffffffffffffff16816001015f9054906101000a900473ffffffffffffffffffffffffffffffffffffffff1673ffffffffffffffffffffffffffffffffffffffff160361062a576040517f08c379a000000000000000000000000000000000000000000000000000000000815260040161062190612726565b60405180910390fd5b806001015f9054906101000a900473ffffffffffffffffffffffffffffffffffffffff1673ffffffffffffffffffffffffffffffffffffffff163373ffffffffffffffffffffffffffffffffffffffff16146106bb576040517f08c379a00000000000000000000000000000000000000000000000000000000081526004016106b29061278e565b60405180910390fd5b806004015f9054906101000a900460ff1661070b576040517f08c379a0000000000000000000000000000000000000000000000000000000008152600401610702906127f6565b60405180910390fd5b8060040160019054906101000a900460ff161561075d576040517f08c379a00000000000000000000000000000000000000000000000000000000081526004016107549061285e565b60405180910390fd5b5f821161079f576040517f08c379a0000000000000000000000000000000000000000000000000000000008152600401610796906128c6565b60405180910390fd5b5f60065f9054906101000a900473ffffffffffffffffffffffffffffffffffffffff1673ffffffffffffffffffffffffffffffffffffffff166323b872dd836001015f9054906101000a900473ffffffffffffffffffffffffffffffffffffffff16846002015f9054906101000a900473ffffffffffffffffffffffffffffffffffffffff16866040518463ffffffff1660e01b8152600401610844939291906128e4565b6020604051808303815f875af1158015610860573d5f803e3d5ffd5b505050506040513d601f19601f82011682018060405250810190610884919061292d565b9050806108c6576040517f08c379a00000000000000000000000000000000000000000000000000000000081526004016108bd906129a2565b60405180910390fd5b60018260040160016101000a81548160ff021916908315150217905550837f51c7503cd8edcbf041a9fff3bccfbd9ebe4160f776959b3bffc307eb3decec4c8460405161091391906121f2565b60405180910390a250505050565b5f60075f815480929190610934906129ed565b91905055506040518060c0016040528060075481526020013373ffffffffffffffffffffffffffffffffffffffff1681526020018373ffffffffffffffffffffffffffffffffffffffff16815260200160405180602001604052805f81525081526020015f151581526020015f151581525060085f60075481526020019081526020015f205f820151815f01556020820151816001015f6101000a81548173ffffffffffffffffffffffffffffffffffffffff021916908373ffffffffffffffffffffffffffffffffffffffff1602179055506040820151816002015f6101000a81548173ffffffffffffffffffffffffffffffffffffffff021916908373ffffffffffffffffffffffffffffffffffffffff1602179055506060820151816003019081610a629190612bc8565b506080820151816004015f6101000a81548160ff02191690831515021790555060a08201518160040160016101000a81548160ff021916908315150217905550905050610ab18260075461132f565b8173ffffffffffffffffffffffffffffffffffffffff163373ffffffffffffffffffffffffffffffffffffffff166007547f972a41921825763994f21966aa32e6173526e78041aa036214a0e924048e52d460405160405180910390a46007549050919050565b5f73ffffffffffffffffffffffffffffffffffffffff168273ffffffffffffffffffffffffffffffffffffffff1603610b88575f6040517f64a0ae92000000000000000000000000000000000000000000000000000000008152600401610b7f91906120f9565b60405180910390fd5b5f610b9b8383610b96611316565b611422565b90508373ffffffffffffffffffffffffffffffffffffffff168173ffffffffffffffffffffffffffffffffffffffff1614610c11578382826040517f64283d7b000000000000000000000000000000000000000000000000000000008152600401610c0893929190612c97565b60405180910390fd5b50505050565b60075481565b610c3783838360405180602001604052805f8152506110b0565b505050565b5f610c4682611257565b9050919050565b5f8073ffffffffffffffffffffffffffffffffffffffff168273ffffffffffffffffffffffffffffffffffffffff1603610cbe575f6040517f89c62b64000000000000000000000000000000000000000000000000000000008152600401610cb591906120f9565b60405180910390fd5b60035f8373ffffffffffffffffffffffffffffffffffffffff1673ffffffffffffffffffffffffffffffffffffffff1681526020019081526020015f20549050919050565b5f60085f8481526020019081526020015f2090505f73ffffffffffffffffffffffffffffffffffffffff16816002015f9054906101000a900473ffffffffffffffffffffffffffffffffffffffff1673ffffffffffffffffffffffffffffffffffffffff1603610da8576040517f08c379a0000000000000000000000000000000000000000000000000000000008152600401610d9f90612726565b60405180910390fd5b806002015f9054906101000a900473ffffffffffffffffffffffffffffffffffffffff1673ffffffffffffffffffffffffffffffffffffffff163373ffffffffffffffffffffffffffffffffffffffff1614610e39576040517f08c379a0000000000000000000000000000000000000000000000000000000008152600401610e3090612d3c565b60405180910390fd5b806004015f9054906101000a900460ff1615610e8a576040517f08c379a0000000000000000000000000000000000000000000000000000000008152600401610e8190612da4565b60405180910390fd5b81816003019081610e9b9190612bc8565b506001816004015f6101000a81548160ff021916908315150217905550827fbed75f4432fd6b91071e197795cf744297cc0ede9409673cd797be17f138f22583604051610ee8919061203c565b60405180910390a2505050565b6008602052805f5260405f205f91509050805f015490806001015f9054906101000a900473ffffffffffffffffffffffffffffffffffffffff1690806002015f9054906101000a900473ffffffffffffffffffffffffffffffffffffffff1690806003018054610f64906126ac565b80601f0160208091040260200160405190810160405280929190818152602001828054610f90906126ac565b8015610fdb5780601f10610fb257610100808354040283529160200191610fdb565b820191905f5260205f20905b815481529060010190602001808311610fbe57829003601f168201915b505050505090806004015f9054906101000a900460ff16908060040160019054906101000a900460ff16905086565b606060018054611019906126ac565b80601f0160208091040260200160405190810160405280929190818152602001828054611045906126ac565b80156110905780601f1061106757610100808354040283529160200191611090565b820191905f5260205f20905b81548152906001019060200180831161107357829003601f168201915b5050505050905090565b6110ac6110a5611316565b838361162d565b5050565b6110bb848484610b18565b6110cf6110c6611316565b85858585611796565b50505050565b60606110e082611257565b505f6110ea611942565b90505f8151116111085760405180602001604052805f815250611133565b8061111284611958565b604051602001611123929190612dfc565b6040516020818303038152906040525b915050919050565b5f60055f8473ffffffffffffffffffffffffffffffffffffffff1673ffffffffffffffffffffffffffffffffffffffff1681526020019081526020015f205f8373ffffffffffffffffffffffffffffffffffffffff1673ffffffffffffffffffffffffffffffffffffffff1681526020019081526020015f205f9054906101000a900460ff16905092915050565b60065f9054906101000a900473ffffffffffffffffffffffffffffffffffffffff1681565b5f7f01ffc9a7000000000000000000000000000000000000000000000000000000007bffffffffffffffffffffffffffffffffffffffffffffffffffffffff1916827bffffffffffffffffffffffffffffffffffffffffffffffffffffffff1916149050919050565b5f8061126283611a22565b90505f73ffffffffffffffffffffffffffffffffffffffff168173ffffffffffffffffffffffffffffffffffffffff16036112d457826040517f7e2732890000000000000000000000000000000000000000000000000000000081526004016112cb91906121f2565b60405180910390fd5b80915050919050565b5f60045f8381526020019081526020015f205f9054906101000a900473ffffffffffffffffffffffffffffffffffffffff169050919050565b5f33905090565b61132a8383836001611a5b565b505050565b5f73ffffffffffffffffffffffffffffffffffffffff168273ffffffffffffffffffffffffffffffffffffffff160361139f575f6040517f64a0ae9200000000000000000000000000000000000000000000000000000000815260040161139691906120f9565b60405180910390fd5b5f6113ab83835f611422565b90505f73ffffffffffffffffffffffffffffffffffffffff168173ffffffffffffffffffffffffffffffffffffffff161461141d575f6040517f73c6ac6e00000000000000000000000000000000000000000000000000000000815260040161141491906120f9565b60405180910390fd5b505050565b5f8061142d84611a22565b90505f73ffffffffffffffffffffffffffffffffffffffff168373ffffffffffffffffffffffffffffffffffffffff161461146e5761146d818486611c1a565b5b5f73ffffffffffffffffffffffffffffffffffffffff168173ffffffffffffffffffffffffffffffffffffffff16146114f9576114ad5f855f80611a5b565b600160035f8373ffffffffffffffffffffffffffffffffffffffff1673ffffffffffffffffffffffffffffffffffffffff1681526020019081526020015f205f82825403925050819055505b5f73ffffffffffffffffffffffffffffffffffffffff168573ffffffffffffffffffffffffffffffffffffffff161461157857600160035f8773ffffffffffffffffffffffffffffffffffffffff1673ffffffffffffffffffffffffffffffffffffffff1681526020019081526020015f205f82825401925050819055505b8460025f8681526020019081526020015f205f6101000a81548173ffffffffffffffffffffffffffffffffffffffff021916908373ffffffffffffffffffffffffffffffffffffffff160217905550838573ffffffffffffffffffffffffffffffffffffffff168273ffffffffffffffffffffffffffffffffffffffff167fddf252ad1be2c89b69c2b068fc378daa952ba7f163c4a11628f55a4df523b3ef60405160405180910390a4809150509392505050565b5f73ffffffffffffffffffffffffffffffffffffffff168273ffffffffffffffffffffffffffffffffffffffff160361169d57816040517f5b08ba1800000000000000000000000000000000000000000000000000000000815260040161169491906120f9565b60405180910390fd5b8060055f8573ffffffffffffffffffffffffffffffffffffffff1673ffffffffffffffffffffffffffffffffffffffff1681526020019081526020015f205f8473ffffffffffffffffffffffffffffffffffffffff1673ffffffffffffffffffffffffffffffffffffffff1681526020019081526020015f205f6101000a81548160ff0219169083151502179055508173ffffffffffffffffffffffffffffffffffffffff168373ffffffffffffffffffffffffffffffffffffffff167f17307eab39ab6107e8899845ad3d59bd9653f200f220920489ca2b5937696c31836040516117899190611f99565b60405180910390a3505050565b5f8373ffffffffffffffffffffffffffffffffffffffff163b111561193b578273ffffffffffffffffffffffffffffffffffffffff1663150b7a02868685856040518563ffffffff1660e01b81526004016117f49493929190612e71565b6020604051808303815f875af192505050801561182f57506040513d601f19601f8201168201806040525081019061182c9190612ecf565b60015b6118b0573d805f811461185d576040519150601f19603f3d011682016040523d82523d5f602084013e611862565b606091505b505f8151036118a857836040517f64a0ae9200000000000000000000000000000000000000000000000000000000815260040161189f91906120f9565b60405180910390fd5b805160208201fd5b63150b7a0260e01b7bffffffffffffffffffffffffffffffffffffffffffffffffffffffff1916817bffffffffffffffffffffffffffffffffffffffffffffffffffffffff19161461193957836040517f64a0ae9200000000000000000000000000000000000000000000000000000000815260040161193091906120f9565b60405180910390fd5b505b5050505050565b606060405180602001604052805f815250905090565b60605f600161196684611cdd565b0190505f8167ffffffffffffffff81111561198457611983612263565b5b6040519080825280601f01601f1916602001820160405280156119b65781602001600182028036833780820191505090505b5090505f82602083010190505b600115611a17578080600190039150507f3031323334353637383961626364656600000000000000000000000000000000600a86061a8153600a8581611a0c57611a0b612efa565b5b0494505f85036119c3575b819350505050919050565b5f60025f8381526020019081526020015f205f9054906101000a900473ffffffffffffffffffffffffffffffffffffffff169050919050565b8080611a9357505f73ffffffffffffffffffffffffffffffffffffffff168273ffffffffffffffffffffffffffffffffffffffff1614155b15611bc5575f611aa284611257565b90505f73ffffffffffffffffffffffffffffffffffffffff168373ffffffffffffffffffffffffffffffffffffffff1614158015611b0c57508273ffffffffffffffffffffffffffffffffffffffff168173ffffffffffffffffffffffffffffffffffffffff1614155b8015611b1f5750611b1d818461113b565b155b15611b6157826040517fa9fbf51f000000000000000000000000000000000000000000000000000000008152600401611b5891906120f9565b60405180910390fd5b8115611bc357838573ffffffffffffffffffffffffffffffffffffffff168273ffffffffffffffffffffffffffffffffffffffff167f8c5be1e5ebec7d5bd14f71427d1e84f3dd0314c0f7b2291e5b200ac8c7c3b92560405160405180910390a45b505b8360045f8581526020019081526020015f205f6101000a81548173ffffffffffffffffffffffffffffffffffffffff021916908373ffffffffffffffffffffffffffffffffffffffff16021790555050505050565b611c25838383611e2e565b611cd8575f73ffffffffffffffffffffffffffffffffffffffff168373ffffffffffffffffffffffffffffffffffffffff1603611c9957806040517f7e273289000000000000000000000000000000000000000000000000000000008152600401611c9091906121f2565b60405180910390fd5b81816040517f177e802f000000000000000000000000000000000000000000000000000000008152600401611ccf929190612f27565b60405180910390fd5b505050565b5f805f90507a184f03e93ff9f4daa797ed6e38ed64bf6a1f0100000000000000008310611d39577a184f03e93ff9f4daa797ed6e38ed64bf6a1f0100000000000000008381611d2f57611d2e612efa565b5b0492506040810190505b6d04ee2d6d415b85acef81000000008310611d76576d04ee2d6d415b85acef81000000008381611d6c57611d6b612efa565b5b0492506020810190505b662386f26fc100008310611da557662386f26fc100008381611d9b57611d9a612efa565b5b0492506010810190505b6305f5e1008310611dce576305f5e1008381611dc457611dc3612efa565b5b0492506008810190505b6127108310611df3576127108381611de957611de8612efa565b5b0492506004810190505b60648310611e165760648381611e0c57611e0b612efa565b5b0492506002810190505b600a8310611e25576001810190505b80915050919050565b5f8073ffffffffffffffffffffffffffffffffffffffff168373ffffffffffffffffffffffffffffffffffffffff1614158015611ee557508273ffffffffffffffffffffffffffffffffffffffff168473ffffffffffffffffffffffffffffffffffffffff161480611ea65750611ea5848461113b565b5b80611ee457508273ffffffffffffffffffffffffffffffffffffffff16611ecc836112dd565b73ffffffffffffffffffffffffffffffffffffffff16145b5b90509392505050565b5f604051905090565b5f80fd5b5f80fd5b5f7fffffffff0000000000000000000000000000000000000000000000000000000082169050919050565b611f3381611eff565b8114611f3d575f80fd5b50565b5f81359050611f4e81611f2a565b92915050565b5f60208284031215611f6957611f68611ef7565b5b5f611f7684828501611f40565b91505092915050565b5f8115159050919050565b611f9381611f7f565b82525050565b5f602082019050611fac5f830184611f8a565b92915050565b5f81519050919050565b5f82825260208201905092915050565b5f5b83811015611fe9578082015181840152602081019050611fce565b5f8484015250505050565b5f601f19601f8301169050919050565b5f61200e82611fb2565b6120188185611fbc565b9350612028818560208601611fcc565b61203181611ff4565b840191505092915050565b5f6020820190508181035f8301526120548184612004565b905092915050565b5f819050919050565b61206e8161205c565b8114612078575f80fd5b50565b5f8135905061208981612065565b92915050565b5f602082840312156120a4576120a3611ef7565b5b5f6120b18482850161207b565b91505092915050565b5f73ffffffffffffffffffffffffffffffffffffffff82169050919050565b5f6120e3826120ba565b9050919050565b6120f3816120d9565b82525050565b5f60208201905061210c5f8301846120ea565b92915050565b61211b816120d9565b8114612125575f80fd5b50565b5f8135905061213681612112565b92915050565b5f806040838503121561215257612151611ef7565b5b5f61215f85828601612128565b92505060206121708582860161207b565b9150509250929050565b5f80604083850312156121905761218f611ef7565b5b5f61219d8582860161207b565b92505060206121ae8582860161207b565b9150509250929050565b5f602082840312156121cd576121cc611ef7565b5b5f6121da84828501612128565b91505092915050565b6121ec8161205c565b82525050565b5f6020820190506122055f8301846121e3565b92915050565b5f805f6060848603121561222257612221611ef7565b5b5f61222f86828701612128565b935050602061224086828701612128565b92505060406122518682870161207b565b9150509250925092565b5f80fd5b5f80fd5b7f4e487b71000000000000000000000000000000000000000000000000000000005f52604160045260245ffd5b61229982611ff4565b810181811067ffffffffffffffff821117156122b8576122b7612263565b5b80604052505050565b5f6122ca611eee565b90506122d68282612290565b919050565b5f67ffffffffffffffff8211156122f5576122f4612263565b5b6122fe82611ff4565b9050602081019050919050565b828183375f83830152505050565b5f61232b612326846122db565b6122c1565b9050828152602081018484840111156123475761234661225f565b5b61235284828561230b565b509392505050565b5f82601f83011261236e5761236d61225b565b5b813561237e848260208601612319565b91505092915050565b5f806040838503121561239d5761239c611ef7565b5b5f6123aa8582860161207b565b925050602083013567ffffffffffffffff8111156123cb576123ca611efb565b5b6123d78582860161235a565b9150509250929050565b5f60c0820190506123f45f8301896121e3565b61240160208301886120ea565b61240e60408301876120ea565b81810360608301526124208186612004565b905061242f6080830185611f8a565b61243c60a0830184611f8a565b979650505050505050565b61245081611f7f565b811461245a575f80fd5b50565b5f8135905061246b81612447565b92915050565b5f806040838503121561248757612486611ef7565b5b5f61249485828601612128565b92505060206124a58582860161245d565b9150509250929050565b5f67ffffffffffffffff8211156124c9576124c8612263565b5b6124d282611ff4565b9050602081019050919050565b5f6124f16124ec846124af565b6122c1565b90508281526020810184848401111561250d5761250c61225f565b5b61251884828561230b565b509392505050565b5f82601f8301126125345761253361225b565b5b81356125448482602086016124df565b91505092915050565b5f805f806080858703121561256557612564611ef7565b5b5f61257287828801612128565b945050602061258387828801612128565b93505060406125948782880161207b565b925050606085013567ffffffffffffffff8111156125b5576125b4611efb565b5b6125c187828801612520565b91505092959194509250565b5f80604083850312156125e3576125e2611ef7565b5b5f6125f085828601612128565b925050602061260185828601612128565b9150509250929050565b5f819050919050565b5f61262e612629612624846120ba565b61260b565b6120ba565b9050919050565b5f61263f82612614565b9050919050565b5f61265082612635565b9050919050565b61266081612646565b82525050565b5f6020820190506126795f830184612657565b92915050565b7f4e487b71000000000000000000000000000000000000000000000000000000005f52602260045260245ffd5b5f60028204905060018216806126c357607f821691505b6020821081036126d6576126d561267f565b5b50919050565b7f4d6f64756c6520646f6573206e6f7420657869737400000000000000000000005f82015250565b5f612710601583611fbc565b915061271b826126dc565b602082019050919050565b5f6020820190508181035f83015261273d81612704565b9050919050565b7f4f6e6c7920636c69656e742063616e20617070726f76650000000000000000005f82015250565b5f612778601783611fbc565b915061278382612744565b602082019050919050565b5f6020820190508181035f8301526127a58161276c565b9050919050565b7f4d6f64756c65206e6f74207375626d69747465640000000000000000000000005f82015250565b5f6127e0601483611fbc565b91506127eb826127ac565b602082019050919050565b5f6020820190508181035f83015261280d816127d4565b9050919050565b7f416c7265616479207061696400000000000000000000000000000000000000005f82015250565b5f612848600c83611fbc565b915061285382612814565b602082019050919050565b5f6020820190508181035f8301526128758161283c565b9050919050565b7f5061796d656e74206d757374206265203e2030000000000000000000000000005f82015250565b5f6128b0601383611fbc565b91506128bb8261287c565b602082019050919050565b5f6020820190508181035f8301526128dd816128a4565b9050919050565b5f6060820190506128f75f8301866120ea565b61290460208301856120ea565b61291160408301846121e3565b949350505050565b5f8151905061292781612447565b92915050565b5f6020828403121561294257612941611ef7565b5b5f61294f84828501612919565b91505092915050565b7f546f6b656e207472616e73666572206661696c656400000000000000000000005f82015250565b5f61298c601583611fbc565b915061299782612958565b602082019050919050565b5f6020820190508181035f8301526129b981612980565b9050919050565b7f4e487b71000000000000000000000000000000000000000000000000000000005f52601160045260245ffd5b5f6129f78261205c565b91507fffffffffffffffffffffffffffffffffffffffffffffffffffffffffffffffff8203612a2957612a286129c0565b5b600182019050919050565b5f819050815f5260205f209050919050565b5f6020601f8301049050919050565b5f82821b905092915050565b5f60088302612a907fffffffffffffffffffffffffffffffffffffffffffffffffffffffffffffffff82612a55565b612a9a8683612a55565b95508019841693508086168417925050509392505050565b5f612acc612ac7612ac28461205c565b61260b565b61205c565b9050919050565b5f819050919050565b612ae583612ab2565b612af9612af182612ad3565b848454612a61565b825550505050565b5f90565b612b0d612b01565b612b18818484612adc565b505050565b5b81811015612b3b57612b305f82612b05565b600181019050612b1e565b5050565b601f821115612b8057612b5181612a34565b612b5a84612a46565b81016020851015612b69578190505b612b7d612b7585612a46565b830182612b1d565b50505b505050565b5f82821c905092915050565b5f612ba05f1984600802612b85565b1980831691505092915050565b5f612bb88383612b91565b9150826002028217905092915050565b612bd182611fb2565b67ffffffffffffffff811115612bea57612be9612263565b5b612bf482546126ac565b612bff828285612b3f565b5f60209050601f831160018114612c30575f8415612c1e578287015190505b612c288582612bad565b865550612c8f565b601f198416612c3e86612a34565b5f5b82811015612c6557848901518255600182019150602085019450602081019050612c40565b86831015612c825784890151612c7e601f891682612b91565b8355505b6001600288020188555050505b505050505050565b5f606082019050612caa5f8301866120ea565b612cb760208301856121e3565b612cc460408301846120ea565b949350505050565b7f4f6e6c792061737369676e656420667265656c616e6365722063616e207375625f8201527f6d69740000000000000000000000000000000000000000000000000000000000602082015250565b5f612d26602383611fbc565b9150612d3182612ccc565b604082019050919050565b5f6020820190508181035f830152612d5381612d1a565b9050919050565b7f416c7265616479207375626d69747465640000000000000000000000000000005f82015250565b5f612d8e601183611fbc565b9150612d9982612d5a565b602082019050919050565b5f6020820190508181035f830152612dbb81612d82565b9050919050565b5f81905092915050565b5f612dd682611fb2565b612de08185612dc2565b9350612df0818560208601611fcc565b80840191505092915050565b5f612e078285612dcc565b9150612e138284612dcc565b91508190509392505050565b5f81519050919050565b5f82825260208201905092915050565b5f612e4382612e1f565b612e4d8185612e29565b9350612e5d818560208601611fcc565b612e6681611ff4565b840191505092915050565b5f608082019050612e845f8301876120ea565b612e9160208301866120ea565b612e9e60408301856121e3565b8181036060830152612eb08184612e39565b905095945050505050565b5f81519050612ec981611f2a565b92915050565b5f60208284031215612ee457612ee3611ef7565b5b5f612ef184828501612ebb565b91505092915050565b7f4e487b71000000000000000000000000000000000000000000000000000000005f52601260045260245ffd5b5f604082019050612f3a5f8301856120ea565b612f4760208301846121e3565b939250505056fea264697066735822122065cde6b19889840c48b981a8fbd4c8b3626f0597dd1d04f407bd78cfc46ab01e64736f6c63430008140033",
  "linkReferences": {},
  "deployedLinkReferences": {}
}