{
  "_format": "hh-sol-artifact-1",
  "contractName": "FreelanceMarketplace",
  "sourceName": "contracts/FreelanceMarketplace.sol",
  "abi": [
    {
      "inputs": [
        {
          "internalType": "address",
          "name": "tokenAddress",
          "type": "address"
        }
      ],
      "stateMutability": "nonpayable",
      "type": "constructor"
    },
    {
      "inputs": [
        {
          "internalType": "address",
          "name": "sender",
          "type": "address"
        },
        {
          "internalType": "uint256",
          "name": "tokenId",
          "type": "uint256"
        },
        {
          "internalType": "address",
          "name": "owner",
          "type": "address"
        }
      ],
      "name": "ERC721IncorrectOwner",
      "type": "error"
    },
    {
      "inputs": [
        {
          "internalType": "address",
          "name": "operator",
          "type": "address"
        },
        {
          "internalType": "uint256",
          "name": "tokenId",
          "type": "uint256"
        }
      ],
      "name": "ERC721InsufficientApproval",
      "type": "error"
    },
    {
      "inputs": [
        {
          "internalType": "address",
          "name": "approver",
          "type": "address"
        }
      ],
      "name": "ERC721InvalidApprover",
      "type": "error"
    },
    {
      "inputs": [
        {
          "internalType": "address",
          "name": "operator",
          "type": "address"
        }
      ],
      "name": "ERC721InvalidOperator",
      "type": "error"
    },
    {
      "inputs": [
        {
          "internalType": "address",
          "name": "owner",
          "type": "address"
        }
      ],
      "name": "ERC721InvalidOwner",
      "type": "error"
    },
    {
      "inputs": [
        {
          "internalType": "address",
          "name": "receiver",
          "type": "address"
        }
      ],
      "name": "ERC721InvalidReceiver",
      "type": "error"
    },
    {
      "inputs": [
        {
          "internalType": "address",
          "name": "sender",
          "type": "address"
        }
      ],
      "name": "ERC721InvalidSender",
      "type": "error"
    },
    {
      "inputs": [
        {
          "internalType": "uint256",
          "name": "tokenId",
          "type": "uint256"
        }
      ],
      "name": "ERC721NonexistentToken",
      "type": "error"
    },
    {
      "anonymous": false,
      "inputs": [
        {
          "indexed": true,
          "internalType": "address",
          "name": "owner",
          "type": "address"
        },
        {
          "indexed": true,
          "internalType": "address",
          "name": "approved",
          "type": "address"
        },
        {
          "indexed": true,
          "internalType": "uint256",
          "name": "tokenId",
          "type": "uint256"
        }
      ],
      "name": "Approval",
      "type": "event"
    },
    {
      "anonymous": false,
      "inputs": [
        {
          "indexed": true,
          "internalType": "address",
          "name": "owner",
          "type": "address"
        },
        {
          "indexed": true,
          "internalType": "address",
          "name": "operator",
          "type": "address"
        },
        {
          "indexed": false,
          "internalType": "bool",
          "name": "approved",
          "type": "bool"
        }
      ],
      "name": "ApprovalForAll",
      "type": "event"
    },
    {
      "anonymous": false,
      "inputs": [
        {
          "indexed": true,
          "internalType": "address",
          "name": "from",
          "type": "address"
        },
        {
          "indexed": true,
          "internalType": "address",
          "name": "to",
          "type": "address"
        },
        {
          "indexed": true,
          "internalType": "uint256",
          "name": "tokenId",
          "type": "uint256"
        }
      ],
      "name": "Transfer",
      "type": "event"
    },
    {
      "inputs": [
        {
          "internalType": "address",
          "name": "freelancer",
          "type": "address"
        }
      ],
      "name": "addModule",
      "outputs": [
        {
          "internalType": "uint256",
          "name": "",
          "type": "uint256"
        }
      ],
      "stateMutability": "nonpayable",
      "type": "function"
    },
    {
      "inputs": [
        {
          "internalType": "address",
          "name": "to",
          "type": "address"
        },
        {
          "internalType": "uint256",
          "name": "tokenId",
          "type": "uint256"
        }
      ],
      "name": "approve",
      "outputs": [],
      "stateMutability": "nonpayable",
      "type": "function"
    },
    {
      "inputs": [
        {
          "internalType": "uint256",
          "name": "moduleId",
          "type": "uint256"
        },
        {
          "internalType": "uint256",
          "name": "paymentAmount",
          "type": "uint256"
        }
      ],
      "name": "approveModule",
      "outputs": [],
      "stateMutability": "nonpayable",
      "type": "function"
    },
    {
      "inputs": [
        {
          "internalType": "address",
          "name": "owner",
          "type": "address"
        }
      ],
      "name": "balanceOf",
      "outputs": [
        {
          "internalType": "uint256",
          "name": "",
          "type": "uint256"
        }
      ],
      "stateMutability": "view",
      "type": "function"
    },
    {
      "inputs": [
        {
          "internalType": "uint256",
          "name": "tokenId",
          "type": "uint256"
        }
      ],
      "name": "getApproved",
      "outputs": [
        {
          "internalType": "address",
          "name": "",
          "type": "address"
        }
      ],
      "stateMutability": "view",
      "type": "function"
    },
    {
      "inputs": [
        {
          "internalType": "address",
          "name": "owner",
          "type": "address"
        },
        {
          "internalType": "address",
          "name": "operator",
          "type": "address"
        }
      ],
      "name": "isApprovedForAll",
      "outputs": [
        {
          "internalType": "bool",
          "name": "",
          "type": "bool"
        }
      ],
      "stateMutability": "view",
      "type": "function"
    },
    {
      "inputs": [],
      "name": "moduleCount",
      "outputs": [
        {
          "internalType": "uint256",
          "name": "",
          "type": "uint256"
        }
      ],
      "stateMutability": "view",
      "type": "function"
    },
    {
      "inputs": [
        {
          "internalType": "uint256",
          "name": "",
          "type": "uint256"
        }
      ],
      "name": "modules",
      "outputs": [
        {
          "internalType": "uint256",
          "name": "id",
          "type": "uint256"
        },
        {
          "internalType": "address",
          "name": "client",
          "type": "address"
        },
        {
          "internalType": "address",
          "name": "freelancer",
          "type": "address"
        },
        {
          "internalType": "string",
          "name": "ipfsHash",
          "type": "string"
        },
        {
          "internalType": "bool",
          "name": "submitted",
          "type": "bool"
        },
        {
          "internalType": "bool",
          "name": "paid",
          "type": "bool"
        }
      ],
      "stateMutability": "view",
      "type": "function"
    },
    {
      "inputs": [],
      "name": "name",
      "outputs": [
        {
          "internalType": "string",
          "name": "",
          "type": "string"
        }
      ],
      "stateMutability": "view",
      "type": "function"
    },
    {
      "inputs": [
        {
          "internalType": "uint256",
          "name": "tokenId",
          "type": "uint256"
        }
      ],
      "name": "ownerOf",
      "outputs": [
        {
          "internalType": "address",
          "name": "",
          "type": "address"
        }
      ],
      "stateMutability": "view",
      "type": "function"
    },
    {
      "inputs": [
        {
          "internalType": "address",
          "name": "from",
          "type": "address"
        },
        {
          "internalType": "address",
          "name": "to",
          "type": "address"
        },
        {
          "internalType": "uint256",
          "name": "tokenId",
          "type": "uint256"
        }
      ],
      "name": "safeTransferFrom",
      "outputs": [],
      "stateMutability": "nonpayable",
      "type": "function"
    },
    {
      "inputs": [
        {
          "internalType": "address",
          "name": "from",
          "type": "address"
        },
        {
          "internalType": "address",
          "name": "to",
          "type": "address"
        },
        {
          "internalType": "uint256",
          "name": "tokenId",
          "type": "uint256"
        },
        {
          "internalType": "bytes",
          "name": "data",
          "type": "bytes"
        }
      ],
      "name": "safeTransferFrom",
      "outputs": [],
      "stateMutability": "nonpayable",
      "type": "function"
    },
    {
      "inputs": [
        {
          "internalType": "address",
          "name": "operator",
          "type": "address"
        },
        {
          "internalType": "bool",
          "name": "approved",
          "type": "bool"
        }
      ],
      "name": "setApprovalForAll",
      "outputs": [],
      "stateMutability": "nonpayable",
      "type": "function"
    },
    {
      "inputs": [
        {
          "internalType": "uint256",
          "name": "moduleId",
          "type": "uint256"
        },
        {
          "internalType": "string",
          "name": "ipfsHash",
          "type": "string"
        }
      ],
      "name": "submitModule",
      "outputs": [],
      "stateMutability": "nonpayable",
      "type": "function"
    },
    {
      "inputs": [
        {
          "internalType": "bytes4",
          "name": "interfaceId",
          "type": "bytes4"
        }
      ],
      "name": "supportsInterface",
      "outputs": [
        {
          "internalType": "bool",
          "name": "",
          "type": "bool"
        }
      ],
      "stateMutability": "view",
      "type": "function"
    },
    {
      "inputs": [],
      "name": "symbol",
      "outputs": [
        {
          "internalType": "string",
          "name": "",
          "type": "string"
        }
      ],
      "stateMutability": "view",
      "type": "function"
    },
    {
      "inputs": [],
      "name": "token",
      "outputs": [
        {
          "internalType": "contract IERC20",
          "name": "",
          "type": "address"
        }
      ],
      "stateMutability": "view",
      "type": "function"
    },
    {
      "inputs": [
        {
          "internalType": "uint256",
          "name": "tokenId",
          "type": "uint256"
        }
      ],
      "name": "tokenURI",
      "outputs": [
        {
          "internalType": "string",
          "name": "",
          "type": "string"
        }
      ],
      "stateMutability": "view",
      "type": "function"
    },
    {
      "inputs": [
        {
          "internalType": "address",
          "name": "from",
          "type": "address"
        },
        {
          "internalType": "address",
          "name": "to",
          "type": "address"
        },
        {
          "internalType": "uint256",
          "name": "tokenId",
          "type": "uint256"
        }
      ],
      "name": "transferFrom",
      "outputs": [],
      "stateMutability": "nonpayable",
      "type": "function"
    }
  ],
  "bytecode": "0x608060405234801562000010575f80fd5b5060405162002f4538038062002f45833981810160405281019062000036919062000173565b6040518060400160405280600981526020017f4d6f64756c654e465400000000000000000000000000000000000000000000008152506040518060400160405280600481526020017f4d4e465400000000000000000000000000000000000000000000000000000000815250815f9081620000b2919062000407565b508060019081620000c4919062000407565b5050508060065f6101000a81548173ffffffffffffffffffffffffffffffffffffffff021916908373ffffffffffffffffffffffffffffffffffffffff16021790555050620004eb565b5f80fd5b5f73ffffffffffffffffffffffffffffffffffffffff82169050919050565b5f6200013d8262000112565b9050919050565b6200014f8162000131565b81146200015a575f80fd5b50565b5f815190506200016d8162000144565b92915050565b5f602082840312156200018b576200018a6200010e565b5b5f6200019a848285016200015d565b91505092915050565b5f81519050919050565b7f4e487b71000000000000000000000000000000000000000000000000000000005f52604160045260245ffd5b7f4e487b71000000000000000000000000000000000000000000000000000000005f52602260045260245ffd5b5f60028204905060018216806200021f57607f821691505b602082108103620002355762000234620001da565b5b50919050565b5f819050815f5260205f209050919050565b5f6020601f8301049050919050565b5f82821b905092915050565b5f60088302620002997fffffffffffffffffffffffffffffffffffffffffffffffffffffffffffffffff826200025c565b620002a586836200025c565b95508019841693508086168417925050509392505050565b5f819050919050565b5f819050919050565b5f620002ef620002e9620002e384620002bd565b620002c6565b620002bd565b9050919050565b5f819050919050565b6200030a83620002cf565b620003226200031982620002f6565b84845462000268565b825550505050565b5f90565b620003386200032a565b62000345818484620002ff565b505050565b5b818110156200036c57620003605f826200032e565b6001810190506200034b565b5050565b601f821115620003bb5762000385816200023b565b62000390846200024d565b81016020851015620003a0578190505b620003b8620003af856200024d565b8301826200034a565b50505b505050565b5f82821c905092915050565b5f620003dd5f1984600802620003c0565b1980831691505092915050565b5f620003f78383620003cc565b9150826002028217905092915050565b6200041282620001a3565b67ffffffffffffffff8111156200042e576200042d620001ad565b5b6200043a825462000207565b6200044782828562000370565b5f60209050601f8311600181146200047d575f841562000468578287015190505b620004748582620003ea565b865550620004e3565b601f1984166200048d866200023b565b5f5b82811015620004b6578489015182556001820191506020850194506020810190506200048f565b86831015620004d65784890151620004d2601f891682620003cc565b8355505b6001600288020188555050505b505050505050565b612a4c80620004f95f395ff3fe608060405234801561000f575f80fd5b506004361061011f575f3560e01c80636352211e116100ab578063a22cb4651161006f578063a22cb4651461032e578063b88d4fde1461034a578063c87b56dd14610366578063e985e9c514610396578063fc0c546a146103c65761011f565b80636352211e1461025f57806370a082311461028f5780637bdf1af7146102bf57806381b2248a146102db57806395d89b41146103105761011f565b806309aaebf2116100f257806309aaebf2146101bd5780631ed86f19146101d957806323b872dd14610209578063334f7ac51461022557806342842e0e146102435761011f565b806301ffc9a71461012357806306fdde0314610153578063081812fc14610171578063095ea7b3146101a1575b5f80fd5b61013d60048036038101906101389190611c33565b6103e4565b60405161014a9190611c78565b60405180910390f35b61015b6104c5565b6040516101689190611d1b565b60405180910390f35b61018b60048036038101906101869190611d6e565b610554565b6040516101989190611dd8565b60405180910390f35b6101bb60048036038101906101b69190611e1b565b61056f565b005b6101d760048036038101906101d29190611e59565b610585565b005b6101f360048036038101906101ee9190611e97565b610777565b6040516102009190611ed1565b60405180910390f35b610223600480360381019061021e9190611eea565b610911565b005b61022d610a10565b60405161023a9190611ed1565b60405180910390f35b61025d60048036038101906102589190611eea565b610a16565b005b61027960048036038101906102749190611d6e565b610a35565b6040516102869190611dd8565b60405180910390f35b6102a960048036038101906102a49190611e97565b610a46565b6040516102b69190611ed1565b60405180910390f35b6102d960048036038101906102d49190612066565b610afc565b005b6102f560048036038101906102f09190611d6e565b610bd4565b604051610307969594939291906120c0565b60405180910390f35b610318610ce9565b6040516103259190611d1b565b60405180910390f35b61034860048036038101906103439190612150565b610d79565b005b610364600480360381019061035f919061222c565b610d8f565b005b610380600480360381019061037b9190611d6e565b610db4565b60405161038d9190611d1b565b60405180910390f35b6103b060048036038101906103ab91906122ac565b610e1a565b6040516103bd9190611c78565b60405180910390f35b6103ce610ea8565b6040516103db9190612345565b60405180910390f35b5f7f80ac58cd000000000000000000000000000000000000000000000000000000007bffffffffffffffffffffffffffffffffffffffffffffffffffffffff1916827bffffffffffffffffffffffffffffffffffffffffffffffffffffffff191614806104ae57507f5b5e139f000000000000000000000000000000000000000000000000000000007bffffffffffffffffffffffffffffffffffffffffffffffffffffffff1916827bffffffffffffffffffffffffffffffffffffffffffffffffffffffff1916145b806104be57506104bd82610ecd565b5b9050919050565b60605f80546104d39061238b565b80601f01602080910402602001604051908101604052809291908181526020018280546104ff9061238b565b801561054a5780601f106105215761010080835404028352916020019161054a565b820191905f5260205f20905b81548152906001019060200180831161052d57829003601f168201915b5050505050905090565b5f61055e82610f36565b5061056882610fbc565b9050919050565b610581828261057c610ff5565b610ffc565b5050565b5f60085f8481526020019081526020015f209050806001015f9054906101000a900473ffffffffffffffffffffffffffffffffffffffff1673ffffffffffffffffffffffffffffffffffffffff163373ffffffffffffffffffffffffffffffffffffffff161461062a576040517f08c379a000000000000000000000000000000000000000000000000000000000815260040161062190612405565b60405180910390fd5b806004015f9054906101000a900460ff16801561065657508060040160019054906101000a900460ff16155b610695576040517f08c379a000000000000000000000000000000000000000000000000000000000815260040161068c90612493565b60405180910390fd5b60065f9054906101000a900473ffffffffffffffffffffffffffffffffffffffff1673ffffffffffffffffffffffffffffffffffffffff1663a9059cbb826002015f9054906101000a900473ffffffffffffffffffffffffffffffffffffffff16846040518363ffffffff1660e01b81526004016107149291906124b1565b6020604051808303815f875af1158015610730573d5f803e3d5ffd5b505050506040513d601f19601f8201168201806040525081019061075491906124ec565b5060018160040160016101000a81548160ff021916908315150217905550505050565b5f60075f81548092919061078a90612544565b91905055506040518060c0016040528060075481526020013373ffffffffffffffffffffffffffffffffffffffff1681526020018373ffffffffffffffffffffffffffffffffffffffff16815260200160405180602001604052805f81525081526020015f151581526020015f151581525060085f60075481526020019081526020015f205f820151815f01556020820151816001015f6101000a81548173ffffffffffffffffffffffffffffffffffffffff021916908373ffffffffffffffffffffffffffffffffffffffff1602179055506040820151816002015f6101000a81548173ffffffffffffffffffffffffffffffffffffffff021916908373ffffffffffffffffffffffffffffffffffffffff16021790555060608201518160030190816108b8919061271f565b506080820151816004015f6101000a81548160ff02191690831515021790555060a08201518160040160016101000a81548160ff0219169083151502179055509050506109078260075461100e565b6007549050919050565b5f73ffffffffffffffffffffffffffffffffffffffff168273ffffffffffffffffffffffffffffffffffffffff1603610981575f6040517f64a0ae920000000000000000000000000000000000000000000000000000000081526004016109789190611dd8565b60405180910390fd5b5f610994838361098f610ff5565b611101565b90508373ffffffffffffffffffffffffffffffffffffffff168173ffffffffffffffffffffffffffffffffffffffff1614610a0a578382826040517f64283d7b000000000000000000000000000000000000000000000000000000008152600401610a01939291906127ee565b60405180910390fd5b50505050565b60075481565b610a3083838360405180602001604052805f815250610d8f565b505050565b5f610a3f82610f36565b9050919050565b5f8073ffffffffffffffffffffffffffffffffffffffff168273ffffffffffffffffffffffffffffffffffffffff1603610ab7575f6040517f89c62b64000000000000000000000000000000000000000000000000000000008152600401610aae9190611dd8565b60405180910390fd5b60035f8373ffffffffffffffffffffffffffffffffffffffff1673ffffffffffffffffffffffffffffffffffffffff1681526020019081526020015f20549050919050565b5f60085f8481526020019081526020015f209050806002015f9054906101000a900473ffffffffffffffffffffffffffffffffffffffff1673ffffffffffffffffffffffffffffffffffffffff163373ffffffffffffffffffffffffffffffffffffffff1614610ba1576040517f08c379a0000000000000000000000000000000000000000000000000000000008152600401610b9890612893565b60405180910390fd5b81816003019081610bb2919061271f565b506001816004015f6101000a81548160ff021916908315150217905550505050565b6008602052805f5260405f205f91509050805f015490806001015f9054906101000a900473ffffffffffffffffffffffffffffffffffffffff1690806002015f9054906101000a900473ffffffffffffffffffffffffffffffffffffffff1690806003018054610c439061238b565b80601f0160208091040260200160405190810160405280929190818152602001828054610c6f9061238b565b8015610cba5780601f10610c9157610100808354040283529160200191610cba565b820191905f5260205f20905b815481529060010190602001808311610c9d57829003601f168201915b505050505090806004015f9054906101000a900460ff16908060040160019054906101000a900460ff16905086565b606060018054610cf89061238b565b80601f0160208091040260200160405190810160405280929190818152602001828054610d249061238b565b8015610d6f5780601f10610d4657610100808354040283529160200191610d6f565b820191905f5260205f20905b815481529060010190602001808311610d5257829003601f168201915b5050505050905090565b610d8b610d84610ff5565b838361130c565b5050565b610d9a848484610911565b610dae610da5610ff5565b85858585611475565b50505050565b6060610dbf82610f36565b505f610dc9611621565b90505f815111610de75760405180602001604052805f815250610e12565b80610df184611637565b604051602001610e029291906128eb565b6040516020818303038152906040525b915050919050565b5f60055f8473ffffffffffffffffffffffffffffffffffffffff1673ffffffffffffffffffffffffffffffffffffffff1681526020019081526020015f205f8373ffffffffffffffffffffffffffffffffffffffff1673ffffffffffffffffffffffffffffffffffffffff1681526020019081526020015f205f9054906101000a900460ff16905092915050565b60065f9054906101000a900473ffffffffffffffffffffffffffffffffffffffff1681565b5f7f01ffc9a7000000000000000000000000000000000000000000000000000000007bffffffffffffffffffffffffffffffffffffffffffffffffffffffff1916827bffffffffffffffffffffffffffffffffffffffffffffffffffffffff1916149050919050565b5f80610f4183611701565b90505f73ffffffffffffffffffffffffffffffffffffffff168173ffffffffffffffffffffffffffffffffffffffff1603610fb357826040517f7e273289000000000000000000000000000000000000000000000000000000008152600401610faa9190611ed1565b60405180910390fd5b80915050919050565b5f60045f8381526020019081526020015f205f9054906101000a900473ffffffffffffffffffffffffffffffffffffffff169050919050565b5f33905090565b611009838383600161173a565b505050565b5f73ffffffffffffffffffffffffffffffffffffffff168273ffffffffffffffffffffffffffffffffffffffff160361107e575f6040517f64a0ae920000000000000000000000000000000000000000000000000000000081526004016110759190611dd8565b60405180910390fd5b5f61108a83835f611101565b90505f73ffffffffffffffffffffffffffffffffffffffff168173ffffffffffffffffffffffffffffffffffffffff16146110fc575f6040517f73c6ac6e0000000000000000000000000000000000000000000000000000000081526004016110f39190611dd8565b60405180910390fd5b505050565b5f8061110c84611701565b90505f73ffffffffffffffffffffffffffffffffffffffff168373ffffffffffffffffffffffffffffffffffffffff161461114d5761114c8184866118f9565b5b5f73ffffffffffffffffffffffffffffffffffffffff168173ffffffffffffffffffffffffffffffffffffffff16146111d85761118c5f855f8061173a565b600160035f8373ffffffffffffffffffffffffffffffffffffffff1673ffffffffffffffffffffffffffffffffffffffff1681526020019081526020015f205f82825403925050819055505b5f73ffffffffffffffffffffffffffffffffffffffff168573ffffffffffffffffffffffffffffffffffffffff161461125757600160035f8773ffffffffffffffffffffffffffffffffffffffff1673ffffffffffffffffffffffffffffffffffffffff1681526020019081526020015f205f82825401925050819055505b8460025f8681526020019081526020015f205f6101000a81548173ffffffffffffffffffffffffffffffffffffffff021916908373ffffffffffffffffffffffffffffffffffffffff160217905550838573ffffffffffffffffffffffffffffffffffffffff168273ffffffffffffffffffffffffffffffffffffffff167fddf252ad1be2c89b69c2b068fc378daa952ba7f163c4a11628f55a4df523b3ef60405160405180910390a4809150509392505050565b5f73ffffffffffffffffffffffffffffffffffffffff168273ffffffffffffffffffffffffffffffffffffffff160361137c57816040517f5b08ba180000000000000000000000000000000000000000000000000000000081526004016113739190611dd8565b60405180910390fd5b8060055f8573ffffffffffffffffffffffffffffffffffffffff1673ffffffffffffffffffffffffffffffffffffffff1681526020019081526020015f205f8473ffffffffffffffffffffffffffffffffffffffff1673ffffffffffffffffffffffffffffffffffffffff1681526020019081526020015f205f6101000a81548160ff0219169083151502179055508173ffffffffffffffffffffffffffffffffffffffff168373ffffffffffffffffffffffffffffffffffffffff167f17307eab39ab6107e8899845ad3d59bd9653f200f220920489ca2b5937696c31836040516114689190611c78565b60405180910390a3505050565b5f8373ffffffffffffffffffffffffffffffffffffffff163b111561161a578273ffffffffffffffffffffffffffffffffffffffff1663150b7a02868685856040518563ffffffff1660e01b81526004016114d39493929190612960565b6020604051808303815f875af192505050801561150e57506040513d601f19601f8201168201806040525081019061150b91906129be565b60015b61158f573d805f811461153c576040519150601f19603f3d011682016040523d82523d5f602084013e611541565b606091505b505f81510361158757836040517f64a0ae9200000000000000000000000000000000000000000000000000000000815260040161157e9190611dd8565b60405180910390fd5b805160208201fd5b63150b7a0260e01b7bffffffffffffffffffffffffffffffffffffffffffffffffffffffff1916817bffffffffffffffffffffffffffffffffffffffffffffffffffffffff19161461161857836040517f64a0ae9200000000000000000000000000000000000000000000000000000000815260040161160f9190611dd8565b60405180910390fd5b505b5050505050565b606060405180602001604052805f815250905090565b60605f6001611645846119bc565b0190505f8167ffffffffffffffff81111561166357611662611f42565b5b6040519080825280601f01601f1916602001820160405280156116955781602001600182028036833780820191505090505b5090505f82602083010190505b6001156116f6578080600190039150507f3031323334353637383961626364656600000000000000000000000000000000600a86061a8153600a85816116eb576116ea6129e9565b5b0494505f85036116a2575b819350505050919050565b5f60025f8381526020019081526020015f205f9054906101000a900473ffffffffffffffffffffffffffffffffffffffff169050919050565b808061177257505f73ffffffffffffffffffffffffffffffffffffffff168273ffffffffffffffffffffffffffffffffffffffff1614155b156118a4575f61178184610f36565b90505f73ffffffffffffffffffffffffffffffffffffffff168373ffffffffffffffffffffffffffffffffffffffff16141580156117eb57508273ffffffffffffffffffffffffffffffffffffffff168173ffffffffffffffffffffffffffffffffffffffff1614155b80156117fe57506117fc8184610e1a565b155b1561184057826040517fa9fbf51f0000000000000000000000000000000000000000000000000000000081526004016118379190611dd8565b60405180910390fd5b81156118a257838573ffffffffffffffffffffffffffffffffffffffff168273ffffffffffffffffffffffffffffffffffffffff167f8c5be1e5ebec7d5bd14f71427d1e84f3dd0314c0f7b2291e5b200ac8c7c3b92560405160405180910390a45b505b8360045f8581526020019081526020015f205f6101000a81548173ffffffffffffffffffffffffffffffffffffffff021916908373ffffffffffffffffffffffffffffffffffffffff16021790555050505050565b611904838383611b0d565b6119b7575f73ffffffffffffffffffffffffffffffffffffffff168373ffffffffffffffffffffffffffffffffffffffff160361197857806040517f7e27328900000000000000000000000000000000000000000000000000000000815260040161196f9190611ed1565b60405180910390fd5b81816040517f177e802f0000000000000000000000000000000000000000000000000000000081526004016119ae9291906124b1565b60405180910390fd5b505050565b5f805f90507a184f03e93ff9f4daa797ed6e38ed64bf6a1f0100000000000000008310611a18577a184f03e93ff9f4daa797ed6e38ed64bf6a1f0100000000000000008381611a0e57611a0d6129e9565b5b0492506040810190505b6d04ee2d6d415b85acef81000000008310611a55576d04ee2d6d415b85acef81000000008381611a4b57611a4a6129e9565b5b0492506020810190505b662386f26fc100008310611a8457662386f26fc100008381611a7a57611a796129e9565b5b0492506010810190505b6305f5e1008310611aad576305f5e1008381611aa357611aa26129e9565b5b0492506008810190505b6127108310611ad2576127108381611ac857611ac76129e9565b5b0492506004810190505b60648310611af55760648381611aeb57611aea6129e9565b5b0492506002810190505b600a8310611b04576001810190505b80915050919050565b5f8073ffffffffffffffffffffffffffffffffffffffff168373ffffffffffffffffffffffffffffffffffffffff1614158015611bc457508273ffffffffffffffffffffffffffffffffffffffff168473ffffffffffffffffffffffffffffffffffffffff161480611b855750611b848484610e1a565b5b80611bc357508273ffffffffffffffffffffffffffffffffffffffff16611bab83610fbc565b73ffffffffffffffffffffffffffffffffffffffff16145b5b90509392505050565b5f604051905090565b5f80fd5b5f80fd5b5f7fffffffff0000000000000000000000000000000000000000000000000000000082169050919050565b611c1281611bde565b8114611c1c575f80fd5b50565b5f81359050611c2d81611c09565b92915050565b5f60208284031215611c4857611c47611bd6565b5b5f611c5584828501611c1f565b91505092915050565b5f8115159050919050565b611c7281611c5e565b82525050565b5f602082019050611c8b5f830184611c69565b92915050565b5f81519050919050565b5f82825260208201905092915050565b5f5b83811015611cc8578082015181840152602081019050611cad565b5f8484015250505050565b5f601f19601f8301169050919050565b5f611ced82611c91565b611cf78185611c9b565b9350611d07818560208601611cab565b611d1081611cd3565b840191505092915050565b5f6020820190508181035f830152611d338184611ce3565b905092915050565b5f819050919050565b611d4d81611d3b565b8114611d57575f80fd5b50565b5f81359050611d6881611d44565b92915050565b5f60208284031215611d8357611d82611bd6565b5b5f611d9084828501611d5a565b91505092915050565b5f73ffffffffffffffffffffffffffffffffffffffff82169050919050565b5f611dc282611d99565b9050919050565b611dd281611db8565b82525050565b5f602082019050611deb5f830184611dc9565b92915050565b611dfa81611db8565b8114611e04575f80fd5b50565b5f81359050611e1581611df1565b92915050565b5f8060408385031215611e3157611e30611bd6565b5b5f611e3e85828601611e07565b9250506020611e4f85828601611d5a565b9150509250929050565b5f8060408385031215611e6f57611e6e611bd6565b5b5f611e7c85828601611d5a565b9250506020611e8d85828601611d5a565b9150509250929050565b5f60208284031215611eac57611eab611bd6565b5b5f611eb984828501611e07565b91505092915050565b611ecb81611d3b565b82525050565b5f602082019050611ee45f830184611ec2565b92915050565b5f805f60608486031215611f0157611f00611bd6565b5b5f611f0e86828701611e07565b9350506020611f1f86828701611e07565b9250506040611f3086828701611d5a565b9150509250925092565b5f80fd5b5f80fd5b7f4e487b71000000000000000000000000000000000000000000000000000000005f52604160045260245ffd5b611f7882611cd3565b810181811067ffffffffffffffff82111715611f9757611f96611f42565b5b80604052505050565b5f611fa9611bcd565b9050611fb58282611f6f565b919050565b5f67ffffffffffffffff821115611fd457611fd3611f42565b5b611fdd82611cd3565b9050602081019050919050565b828183375f83830152505050565b5f61200a61200584611fba565b611fa0565b90508281526020810184848401111561202657612025611f3e565b5b612031848285611fea565b509392505050565b5f82601f83011261204d5761204c611f3a565b5b813561205d848260208601611ff8565b91505092915050565b5f806040838503121561207c5761207b611bd6565b5b5f61208985828601611d5a565b925050602083013567ffffffffffffffff8111156120aa576120a9611bda565b5b6120b685828601612039565b9150509250929050565b5f60c0820190506120d35f830189611ec2565b6120e06020830188611dc9565b6120ed6040830187611dc9565b81810360608301526120ff8186611ce3565b905061210e6080830185611c69565b61211b60a0830184611c69565b979650505050505050565b61212f81611c5e565b8114612139575f80fd5b50565b5f8135905061214a81612126565b92915050565b5f806040838503121561216657612165611bd6565b5b5f61217385828601611e07565b92505060206121848582860161213c565b9150509250929050565b5f67ffffffffffffffff8211156121a8576121a7611f42565b5b6121b182611cd3565b9050602081019050919050565b5f6121d06121cb8461218e565b611fa0565b9050828152602081018484840111156121ec576121eb611f3e565b5b6121f7848285611fea565b509392505050565b5f82601f83011261221357612212611f3a565b5b81356122238482602086016121be565b91505092915050565b5f805f806080858703121561224457612243611bd6565b5b5f61225187828801611e07565b945050602061226287828801611e07565b935050604061227387828801611d5a565b925050606085013567ffffffffffffffff81111561229457612293611bda565b5b6122a0878288016121ff565b91505092959194509250565b5f80604083850312156122c2576122c1611bd6565b5b5f6122cf85828601611e07565b92505060206122e085828601611e07565b9150509250929050565b5f819050919050565b5f61230d61230861230384611d99565b6122ea565b611d99565b9050919050565b5f61231e826122f3565b9050919050565b5f61232f82612314565b9050919050565b61233f81612325565b82525050565b5f6020820190506123585f830184612336565b92915050565b7f4e487b71000000000000000000000000000000000000000000000000000000005f52602260045260245ffd5b5f60028204905060018216806123a257607f821691505b6020821081036123b5576123b461235e565b5b50919050565b7f4f6e6c7920636c69656e742063616e20617070726f76650000000000000000005f82015250565b5f6123ef601783611c9b565b91506123fa826123bb565b602082019050919050565b5f6020820190508181035f83015261241c816123e3565b9050919050565b7f4d6f64756c65206e6f74207375626d6974746564206f7220616c7265616479205f8201527f7061696400000000000000000000000000000000000000000000000000000000602082015250565b5f61247d602483611c9b565b915061248882612423565b604082019050919050565b5f6020820190508181035f8301526124aa81612471565b9050919050565b5f6040820190506124c45f830185611dc9565b6124d16020830184611ec2565b9392505050565b5f815190506124e681612126565b92915050565b5f6020828403121561250157612500611bd6565b5b5f61250e848285016124d8565b91505092915050565b7f4e487b71000000000000000000000000000000000000000000000000000000005f52601160045260245ffd5b5f61254e82611d3b565b91507fffffffffffffffffffffffffffffffffffffffffffffffffffffffffffffffff82036125805761257f612517565b5b600182019050919050565b5f819050815f5260205f209050919050565b5f6020601f8301049050919050565b5f82821b905092915050565b5f600883026125e77fffffffffffffffffffffffffffffffffffffffffffffffffffffffffffffffff826125ac565b6125f186836125ac565b95508019841693508086168417925050509392505050565b5f61262361261e61261984611d3b565b6122ea565b611d3b565b9050919050565b5f819050919050565b61263c83612609565b6126506126488261262a565b8484546125b8565b825550505050565b5f90565b612664612658565b61266f818484612633565b505050565b5b81811015612692576126875f8261265c565b600181019050612675565b5050565b601f8211156126d7576126a88161258b565b6126b18461259d565b810160208510156126c0578190505b6126d46126cc8561259d565b830182612674565b50505b505050565b5f82821c905092915050565b5f6126f75f19846008026126dc565b1980831691505092915050565b5f61270f83836126e8565b9150826002028217905092915050565b61272882611c91565b67ffffffffffffffff81111561274157612740611f42565b5b61274b825461238b565b612756828285612696565b5f60209050601f831160018114612787575f8415612775578287015190505b61277f8582612704565b8655506127e6565b601f1984166127958661258b565b5f5b828110156127bc57848901518255600182019150602085019450602081019050612797565b868310156127d957848901516127d5601f8916826126e8565b8355505b6001600288020188555050505b505050505050565b5f6060820190506128015f830186611dc9565b61280e6020830185611ec2565b61281b6040830184611dc9565b949350505050565b7f4f6e6c792061737369676e656420667265656c616e6365722063616e207375625f8201527f6d69740000000000000000000000000000000000000000000000000000000000602082015250565b5f61287d602383611c9b565b915061288882612823565b604082019050919050565b5f6020820190508181035f8301526128aa81612871565b9050919050565b5f81905092915050565b5f6128c582611c91565b6128cf81856128b1565b93506128df818560208601611cab565b80840191505092915050565b5f6128f682856128bb565b915061290282846128bb565b91508190509392505050565b5f81519050919050565b5f82825260208201905092915050565b5f6129328261290e565b61293c8185612918565b935061294c818560208601611cab565b61295581611cd3565b840191505092915050565b5f6080820190506129735f830187611dc9565b6129806020830186611dc9565b61298d6040830185611ec2565b818103606083015261299f8184612928565b905095945050505050565b5f815190506129b881611c09565b92915050565b5f602082840312156129d3576129d2611bd6565b5b5f6129e0848285016129aa565b91505092915050565b7f4e487b71000000000000000000000000000000000000000000000000000000005f52601260045260245ffdfea264697066735822122080ee78a99ecbda93b6750af77f04166aa23887c1f67671600f11131930b55ffa64736f6c63430008140033",
  "linkReferences": {},
  "deployedLinkReferences": {}
}